:020000020000FC
:10000000259A2D985298579A5F98569A5E9807ECC1
:1000100000937A0000E600937C000F931F9307E69D
:1000200010E00093C4001093C50008E10093C100E4
:1000300006E00093C2001F910F912F938F939F931F
:1000400024E68EE39CE90197F1F72A95D1F70000A9
:100050009F918F912F910E94EA00FF920F931F931F
:100060002F933F93CF93DF93EF93012F302F0F9375
:100070000091C00005FFFCCF0F91C0E0D0E0E0E0B0
:100080001AE02F93FF1829E0001F2A9509F408C0F1
:10009000FF1CF11A18F4F10E8894F6CF0894F4CFEF
:1000A0002F91CF2D1AE02F93FF1829E0001F2A95DA
:1000B00009F408C0FF1CF11A18F4F10E8894F6CF69
:1000C0000894F4CF2F91DF2D1AE02F93FF1829E029
:1000D000001F2A9509F408C0FF1CF11A18F4F10E4C
:1000E0008894F6CF0894F4CF2F91EF2D20E010E301
:1000F000203029F0213041F0223059F01DC0343633
:10010000C8F0E10F0E2F08C03A30A0F0D10F0D2F2C
:1001100003C0C10F0C2F00C00F930091C00005FF5A
:10012000FCCF0F910093C6000F930091C00005FF14
:10013000FCCF0F912395DCCFEF91DF91CF913F91D1
:100140002F911F910F91FF901A3818F02D985E98FB
:1001500005C02D9A5E9A123808F431E04A9902C01F
:100160002D9802C02D9A21E00F930091C00005FF49
:10017000FCCF0DE20093C6000F91213061F03130C9
:1001800051F00F930091C00005FFFCCF00E30093F6
:10019000C6000F910AC00F930091C00005FFFCCF6D
:1001A00001E30093C6000F915F9A00E00091C00048
:1001B00007FF03C00091C60001C000E0003049F015
:1001C000023421F05F9A31E021E003C05F9830E013
:1001D00020E033CF00917A00006400937A00009110
:1001E0007A0006FDFCCF0091780010917900089507
:00000001FF
